:020000040800F2
:10000000483100209D010008FB3C000875350008C0
:10001000F93C00085D0B0008A15D0008000000002D
:10002000000000000000000000000000C53E0008C5
:100030009D0D0008000000008B3E0008C73E000830
:10004000B7010008B7010008B7010008B7010008B0
:10005000B7010008B7010008B7010008B7010008A0
:10006000B7010008B7010008B7010008B701000890
:10007000B7010008B7010008B7010008B701000880
:10008000B7010008B7010008B7010008B701000870
:10009000B7010008B7010008B7010008B701000860
:1000A000B7010008B7010008B7010008B701000850
:1000B000713F00087D3F0008B7010008B701000844
:1000C000B7010008B7010008B7010008B701000830
:1000D000B7010008B7010008B7010008C1460008D1
:1000E000B7010008B7010008B7010008B701000810
:1000F000B7010008B7010008B7010008B701000800
:10010000B7010008B7010008B7010008B7010008EF
:10011000B7010008B7010008B7010008B7010008DF
:10012000B7010008B7010008B7010008B7010008CF
:10013000ED0C0008B7010008B7010008B70100087E
:10014000B7010008B7010008B7010008013D000829
:10015000B7010008B7010008B7010008B70100089F
:10016000B7010008B7010008B7010008B70100088F
:10017000B7010008B7010008B7010008000000003F
:10018000B7010008B7010008DFF80CD000F076FBDB
:100190000048004725650008483100200648804790
:1001A00006480047FEE7FEE7FEE7FEE7FEE7FEE75C
:1001B000FEE7FEE7FEE7FEE7553F0008890100087D
:1001C0002DE9F05F0546002092469B46884606468C
:1001D000814640241BE0284641464746224600F01F
:1001E00096FA53465A46C01A914110D31146184602
:1001F000224600F07DFA2D1A67EB01084F46224691
:100200000120002100F074FA17EB00094E41201E76
:10021000A4F10104DFDC484631462A464346BDE8E6
:10022000F09F40EA01039B0703D009E008C9121FB1
:1002300008C0042AFAD203E011F8013B00F8013BA0
:10024000521EF9D27047D2B201E000F8012B491ECC
:10025000FBD270470022F6E710B513460A46044663
:100260001946FFF7F0FF204610BD421C10F8011B95
:100270000029FBD1801A70472DE9FE4F804681EAA4
:100280000300C00F0C46009021F0004123F0004510
:10029000B8EB0200A94105D24046214690461C46D3
:1002A0000B46024623F00040104347D0270DC7F30A
:1002B0000A00C3F30A510290401A019040286BDAF9
:1002C000C3F3130040F4801B0098924620B1002332
:1002D000D2EB030A63EB0B0B01985946C0F14002C5
:1002E000504600F005FA06460D4650465946019A1A
:1002F00000F01DFA10EB08006141002487EA11525A
:1003000084EAE7731A4340D0009A62B3019A012A43
:100310004FEA075215DC001B61EB02014FF000426F
:1003200002EA0752CDE90042001C41F58011324635
:100330002B4600F054FA03B0BDE8F08F404621464A
:10034000F9E7001B61EB0201001C41F58013001866
:100350005B412018A2F5001747EB030140EAD57076
:10036000B6196D4111E06D084FEA360645EAC075D1
:100370004FEA0752001B61EB0201001C41F580119E
:1003800049084FEA30000019514132462B4603B06C
:10039000BDE8F04F00F014BA00980122400000239D
:1003A000D0EB020263EBE073009821464FEAE07461
:1003B000B8EB000061EB0401E9E783F000435BE781
:1003C00081F0004158E72DE9FE4F81EA030404F073
:1003D000004421F0004100944FF0000B23F0004353
:1003E00050EA01045ED052EA03045BD0C3F30A541E
:1003F000C1F30A552C44A4F2F3340194A0FB025437
:10040000C1F3130141F48011C3F3130343F48013C8
:1004100001FB024400FB034E840A970A44EA81541C
:1004200047EA8357A4FB076802958D0A05FB0785F9
:100430004FEA932C04FB0C542705029D4FEA065803
:1004400047EA1637B5EB08056EEB070C870E920EE0
:1004500047EA811742EA8312A7FB0201B6EB0B01C0
:1004600064EB00042B0D43EA0C335E1844EB1C5084
:10047000DA465146E7FB0201C5F313044FEA0B339A
:1004800043EA14534FEA0432019C43EA0603A4F101
:100490000C040294009CCDE900B400F0A0F903B074
:1004A000BDE8F08F00200146F9E72DE9F04D81EA23
:1004B000030404F0004B21F0004514464FF0000AFD
:1004C00023F0004150EA050220D054EA01021DD079
:1004D000C5F30A570246C5F31303C1F31300C1F372
:1004E0000A5640F4801543F48013A7EB0608101B4E
:1004F000D64608F2FD3873EB050002D308F1010877
:1005000001E092185B41B8F1000F03DA00200146C8
:10051000BDE8F08D00204FF48011064684460EE0C1
:10052000171B73EB050705D3121B63EB050306438B
:100530004CEA010C49084FEA300092185B4150EA3E
:100540000107EDD152EA030012D082EA040083EAE7
:100550000501084305D0101BAB4106D20122002340
:1005600006E000224FF0004302E06FF0010253105A
:100570001AEB06004CEB085110EB0A0041EB0B01A3
:10058000BDE8F04D00F01CB90EB5C10F80EAE07077
:100590000844CA07002140F233438DE80E000A46A2
:1005A0000B4600F01CF903B000BD0EB540F233411C
:1005B00002910021CDE900110A460B4600F00FF927
:1005C00003B000BD70B5C1F30A5201F0004500242C
:1005D000C1F3130140F2FF3341F480119A4201DA72
:1005E000002070BD40F233439A42A2F2334203DC52
:1005F000524200F08CF800E090402C43F1D0404291
:1006000070BDC1F30A5210B5C1F3130140F2FF33BC
:1006100041F480119A4201DA002010BD40F23343C8
:100620009A42A2F2334203DC524200F070F810BD4D
:10063000904010BD00F0004230F000400AD0C10DE3
:1006400001F56071C0F3160042EA0151C20840078B
:1006500011437047002001467047000030B5041E6A
:1006600071F1000404DB4FF00044404264EB0101EF
:10067000141E73F1000405DB1C464FF00043524288
:1006800063EB0403994208BF904230BD01F0004380
:1006900030B421F0004150EA010206D00A0DA2F563
:1006A0006072C1F31301002A02DC30BC00207047E5
:1006B000440F44EAC104C100E01830BC00EBC25052
:1006C00000F047B830B50B46014600202022012437
:1006D00009E021FA02F59D4205D303FA02F5491B10
:1006E00004FA02F52844151EA2F10102F1DC30BD26
:1006F000202A04DB203A00FA02F1002070479140E2
:10070000C2F1200320FA03F3194390407047202AD6
:1007100004DB203A21FA02F00021704721FA02F3AB
:10072000D040C2F120029140084319467047202A68
:1007300006DBCB17203A41FA02F043EAE07306E009
:1007400041FA02F3D040C2F1200291400843194619
:1007500070470029A8BF7047401C490008BF20F01F
:100760000100704710B4B0FA80FC00FA0CF050EAB7
:10077000010404BF10BC704749B1CCF1200421FA38
:1007800004F411FA0CF118BF012121430843A3EB33
:100790000C01CB1D4FEA00614FEA102042BF002040
:1007A00010BC704700EBC35010440029A4BF10BC1C
:1007B0007047401C490008BF20F0010010BC704782
:1007C00010B5141E73F1000408DA401C41F1000159
:1007D00092185B411A4301D120F0010010BD2DE9B0
:1007E000F04D92469B4611B1B1FA81F202E0B0FAA7
:1007F00080F220329046FFF77BFF04460F4640EA26
:100800000A0041EA0B0153465A46084313D01146E9
:1008100053EA010019D0C8F140025046FFF777FFB4
:1008200005460E46504659464246FFF761FF0843CB
:1008300005D0012004E020463946BDE8F08D0020B7
:10084000054346EAE0762C4337430A986305E40AF9
:10085000A0EB08000022FD0A44EA47540A3002D502
:1008600000200146E9E7010510196941DDE9084565
:1008700000196941BDE8F04DA2E70000064C074DA4
:1008800006E0E06840F0010394E807009847103460
:10089000AC42F6D3FFF77CFCF06B0008106C00084C
:1008A00070B58C1810F8015B15F0070301D110F832
:1008B000013B2A1106D110F8012B03E010F8016B5F
:1008C00001F8016B5B1EF9D12B0705D40023521EE2
:1008D0000DD401F8013BFAE710F8013BCB1A921C4A
:1008E00003E013F8015B01F8015B521EF9D5A14248
:1008F000D8D3002070BD10B50146806B026C12F099
:10090000500F05D0026CD20626D500F057FB10BD63
:10091000016C41F40071016401688A6812F0405F63
:1009200017D1027EAAB9CA6A12F4700F02D08A687F
:1009300052050ED44A6822F020024A60016C21F46C
:1009400080710164016CC90403D4016C41F00101A0
:10095000016400F031FB10BD806BC26CBDE810403B
:100960000846104710B5806B40210164416C41F08E
:100970000401416400F022FB10BD10B5806B00F053
:100980001CFB10BD464910B54A6822F440324A604B
:100990004A6843681A434A6001684A6822F48072D0
:1009A0004A6001684A68036942EA03224A600168B2
:1009B0004A6822F040724A6001684A6883681A43B4
:1009C0004A6001688A6822F400628A6001688A6865
:1009D000C3681A438A60816A6FF07062D14201680D
:1009E0008A6822F070628A6001688A680CD0836A23
:1009F0001A438A6001688A6822F040528A6001685E
:100A00008A68C36A1A4301E022F040528A60016892
:100A10008A6822F002028A6001688A68037E42EADC
:100A200043028A6090F82010002901684A680FD0BC
:100A300042F400624A6001684A6822F460424A60F7
:100A400001684A68174C436A04EB43331A4301E0D8
:100A500022F400624A600168CA6A22F47002CA6223
:100A60000168CA6A838B104C04EB03531A43CA62B1
:100A700001688A6822F400728A6001688A6890F8C6
:100A8000303042EA43228A6001688A6822F4806238
:100A90008A6001688A68406942EA8020886010BDE7
:100AA0000023014000E0FFFF0000F0FF38B51B4CC1
:100AB0000121217030B1012806D0022829D0032855
:100AC00004D128E0CD2000E0D32060708320A07006
:100AD0000A2000F0B5FD0A250323104A9221104890
:100AE000009501F05BF80020207001230B4A922151
:100AF0000B48009501F052F8084A0223121F922178
:100B00000748009500F05AFF0448001F008840BACB
:100B100038BDE320D9E7C320D7E700002C00002030
:100B2000D003002070B50B4C4FF08045A08A218A7D
:100B30008842094805D002F0A8F9208AE862A0821C
:100B400003E002F0A2F9208AE862BDE870400248A2
:100B500002F08AB90000002024040020FEE70020F3
:100B6000704700207047000010B500220449054876
:100B700003F0A0FE0449034803F096FE002010BDD8
:100B800040100020E40400204008002070B50C460E
:100B900005460146364803F087FE354803F068FEF7
:100BA000227829463348FFF73CFB324800F0F8F83A
:100BB00031490860314909786D2916D00CDC632968
:100BC00045D004DC432951D05A2949D14CE065294C
:100BD00012D0692944D10DE06F293AD0702913D081
:100BE000712913D072293BD101E0254900E0254944
:100BF000087035E02449FBE710F0FF01234801703D
:100C00002ED1012101702BE02149F1E7C1B2214829
:100C10003C29017001D33C210170C8B2FFF7C5FC2B
:100C20009FED1D1B53EC112BFFF73FFC9FED1C1B91
:100C300053EC112BFFF7C7FBFFF7E3FC83B21A4815
:100C4000002211460380194800F032FB08E01849E1
:100C5000CEE700EE100A1748B8EEC00A80ED000A91
:100C600003F042FA002070BD1349C1E71349BFE702
:100C7000E404002000080020580000200D0000209F
:100C800001000020070000200800002009000020CB
:100C900006000020050000200000000000004E407B
:100CA000000000000088A34018000020BC030020C2
:100CB000160000206C00002002000020030000202D
:100CC000094A10B5D2F89022D2F814220AB10120B4
:100CD00010BD0A460146044803F0ECFDBDE8104093
:100CE000014803F045BE0000E4040020014800F084
:100CF00035BB00005C03002001681823CAB2103A1B
:100D0000B2FBF3F2054B6FF30901032A9B5CC36549
:100D100000D9091D8165084670470000D06B0008A6
:100D200010B5014600208B698A6A4FF0C07453B138
:100D3000B3F5005F15D072B1012A0CD0022A0AD097
:100D4000032A09D104E01AB1012A06D0022A03D1EC
:100D5000C96AC90100D5012010BDC96AA142FAD0F3
:100D600010BD002AF7D0012AF2D0022AF3D0032ABC
:100D7000F3D010BD30B50468256825F480252560C2
:100D8000046863608368402B036803D0996000683F
:100D9000C26030BD9A600068C16030BD704700001D
:100DA00010B50246002011780A2905D0084B6FF0D3
:100DB0002F045973012107E0002010BD00EB8000D3
:100DC00004EB40001844491C535C0A2BF6D110BDBB
:100DD000000000207047000070B5104D04462DED56
:100DE000028BA883288C0646FFF7DFFB41EC180B2B
:100DF000A01BFFF7C9FB9FED0A1B53EC112BFFF75C
:100E000054FB53EC182BFFF737FAFFF7FAFB80B2CD
:100E100068842884BDEC028B70BD000000000020B7
:100E20000000000000001440054941F28832C883E8
:100E3000504340F2FF32B0FBF2F080B2488370477B
:100E40000000002010B50320FFF730FE064C60853F
:100E500080B2FFF7C1FFE08103F018F804F18000D1
:100E600080ED050A10BD00000000002078B50024C8
:100E7000009490F83C20012A19D0012280F83C20EF
:100E80000A6807230568092A13D9EE680A3A02EBB3
:100E9000420293409E43EE600B788A680A3B03EB64
:100EA00043039A400368DD682A43DA6010E00220B9
:100EB00078BD2E6902EB420293409E432E610B786F
:100EC0008A6803EB43039A4003681D692A431A6149
:100ED0004A681F23072A13D205686E6B521E02EB65
:100EE000820293409E436E630B790A885B1E92B226
:100EF00003EB83039A4003685D6B2A435A6327E040
:100F000005680D2A12D22E6BD21F02EB820293408B
:100F10009E432E630B790A88DB1F92B203EB830397
:100F20009A4003681D6B2A431A6311E0EE6A0D3A7A
:100F300002EB820293409E43EE620B790A880D3BDE
:100F400092B203EB83039A400368DD6A2A43DA62B4
:100F5000164B0568144A9D4206D10D68122D03D127
:100F6000556845F48005556005689D4218D10B68A9
:100F7000102B01D0112B13D1536843F4000353609D
:100F8000096810290CD10A490A4A0968B1FBF2F133
:100F900001EB8101490000E0491E00910029FBD1CD
:100FA00080F83C40002078BD002301400020014033
:100FB000E401002040420F0070477047704770B551
:100FC00004004FF0000503D0206C002610B107E0AC
:100FD000012070BD204600F01DF8666484F83C6076
:100FE000206CC00610D4206C20F4885040F0020021
:100FF00020642046FFF7C6FC6664206C20F00200E7
:1010000040F00100206400E0012584F83C6028469F
:1010100070BD0000F0B587B0064614216846FFF7A2
:1010200019F91F493068884238D11E4800250168E7
:1010300041F480710160006800F4807005901948E7
:101040001438016841F0010101600068032700F0D5
:10105000010005900A20CDE9000769460295124873
:1010600000F000FB124C1148C4E900050015A56012
:10107000C4E90350400060618000A0614011C4E9F0
:10108000070504206062C4E90A752046256300F064
:1010900035FA08B1FFF79EFEB463A66307B0F0BD52
:1010A00000200140443802400000024070640240C9
:1010B0005C030020F8B50E4600210446009190F82C
:1010C0003C00012807D0012084F83C002068836898
:1010D000DB0702D011E00220F8BD836843F0010372
:1010E00083603748374B0068B0FBF3F000EB4000FB
:1010F00000E0401E00900028FBD120688368DB07D9
:101100005CD0236C40F20165AB4343F480732364ED
:101110004068400505D5206C20F4005040F4805014
:101120002064206CC00404D5606C20F0060060646C
:1011300000E0616484F83C10A16B2448224DC86330
:10114000A16B23480864A16B2248C86421686FF032
:10115000220008602068416841F080614160206899
:10116000816841F4807181602168134632464C31B8
:10117000A06B00F02DFA68681749C006206806D0F9
:1011800088421BD1816811F0405F13D016E088427D
:10119000F8D0124A904203D1D1F80423D206F1D0FC
:1011A0000F4A90420AD1D1F8041301F01F0110290F
:1011B000E8D303E0816841F0804181600020F8BD00
:1011C000E401002040420F0000230140F70800081E
:1011D0007B0900086509000800200140002101404A
:1011E0000022014070B54379012B1AD001264671C7
:1011F0000223037105682C6840F6FE7393409C43FC
:10120000D1E900310B43934023432B6001680B6805
:10121000C0249440A3430B6006710021417108462D
:1012200070BD022070BD70B5040003D02079002588
:1012300010B105E0012070BD6571204600F008F88E
:1012400002202071256101202071002070BD000066
:1012500010B586B0044614216846FEF7FBFF11491D
:10126000206888421CD110480021026842F00052D8
:101270000260006800F0005005900B4810380268CA
:1012800042F001020260006800F0010005901020A9
:1012900000900320CDE901016946044800F0E2F91D
:1012A00006B010BD0074004040380240000002400B
:1012B00018B5046800940068104421B114300090FF
:1012C0000360002018BD0830F9E730B54279012AE3
:1012D00016D0012242710223037103681D6802FACD
:1012E00001F425431D60002901680B680AD00C68D1
:1012F00003F4802304F46014B3F5802F0FD015E0BD
:10130000022030BD0C6803F0040304F03804042B01
:101310000CD1382C0AD14B6843F0010305E0B4F539
:10132000601F03D14B6843F002034B600271002140
:101330004171084630BD90F83510022903D0802154
:10134000416501207047052180F83510006801686B
:1013500021F0010101600020704700002DE9F843F1
:1013600004464FF00009CDF8009063484FF4165141
:10137000A56D0068B0FBF1F72E6894F85C100820AA
:1013800000FA01F131420FD021680A6852070BD5EB
:101390000A6822F004020A6094F85C108840A86091
:1013A000606D40F00100606594F85C104FF001083A
:1013B00008FA01F0304208D021684969090604D5CD
:1013C000A860606D40F00200606594F85C10042035
:1013D0008840304208D021680968890704D5A86090
:1013E000606D40F00400606594F85C101020884047
:1013F000304218D021680968090714D5A860206810
:101400000168490304D50068000308D5A16C07E012
:101410000168C90503D4016821F008010160216C4D
:1014200009B12046884794F85C102020884030425B
:1014300031D021680968C9062DD5A86094F8350017
:1014400005282068016806D0490347D500680003D5
:101450001DD4616C1CE021F0160101602068416917
:1014600021F080014161206C08B9A06C20B1206896
:10147000016821F00801016094F85C103F20884069
:10148000A86084F8349084F83580216D1FE0E16B0A
:1014900009B120468847606D00282BD0606DC007D9
:1014A00014D0052084F835002068016821F001017E
:1014B00001600098401C0090B84203D82068006882
:1014C000C007F6D184F8349084F83580E16C0029A7
:1014D00010D001B02046BDE8F04308470168C905B7
:1014E000D5D4016821F01001016084F8349084F8AB
:1014F0003580CCE7BDE8F883E40100202DE9F04118
:10150000044600F091F906465CB1002584F8345099
:10151000022084F835002068016821F00101016093
:101520000DE00120BDE8F08100F07EF9801B052868
:1015300005D920206065032084F83500F2E7206893
:101540000068C007F0D12268116820480140D4E942
:1015500001031843D4E9033633431843636918433E
:10156000A3691843E3691843236A18430843616A6F
:10157000042903D1D4E90B131943084310602068F0
:101580004069666A20F0070130460E4301270428AF
:101590000CD1A06A0643E06A40B12046FFF7C0FBC9
:1015A00020B14020606584F83570BAE72068466154
:1015B0002046FFF7A1FB94F85C203F219140816019
:1015C000656584F835700020ACE700003F8010F0BE
:1015D0002DE9F0410446866D90F83400002501287D
:1015E0000DD0012084F8340094F835700020012FCC
:1015F00007D084F8340002252846BDE8F081022097
:10160000FBE7022784F8357060652046FFF7B2FBE0
:1016100094F85C103F208840B0602068016841F079
:1016200016010160206C20B12068016841F00801BA
:1016300001602068016841F001010160DCE7000001
:1016400070B5044600F0F0F80546601C02D004486E
:101650000078044400F0E8F8401BA042FAD370BDC3
:10166000D80100202DE9F84F00224FF00108032592
:101670004FF00F0E0B6808FA02F42340A3426ED11C
:101680004E68012E05D0022E03D0112E01D0122E4D
:1016900012D186684FEA420C05FA0CF7BE43CF68B8
:1016A00007FA0CF7374387604668A6430C79C4F302
:1016B0000014944034434460C668570005FA07FCA0
:1016C0008C6826EA0C06BC403443C4604C68022C8B
:1016D00001D0122C13D1D40800EB8404A346D4F813
:1016E000209054074FEAD46A0EFA0AF629EA06094E
:1016F0000E6906FA0AF646EA0906CBF82060066883
:101700000C7926EA0C0604F00304BC403443046060
:101710004C68E40065D5364C266846F48046266061
:10172000246822F0030604F480440094314C3444CD
:10173000A446D4F808489607370F0EFA07F6B443C4
:101740002D4EB04201D1002624E02C4EB04201D1F2
:1017500001261FE02A4EB04202D102261AE040E0E4
:10176000284EB04201D1032614E0274EB04201D1E9
:1017700004260FE0254EB04201D105260AE0244E92
:10178000B04201D1062605E0224EB04201D1072623
:1017900000E00826BE402643CCF808681E4E346898
:1017A0004F689C43FF0300D51C4334601A4C241D32
:1017B00026684F689E43BF0300D51E432660164E21
:1017C000083634684F689C43FF0200D51C433460E0
:1017D000114E0C3634684F689C43BF0200D51C4341
:1017E0003460521C102AFFF445AFBDE8F88F0000AA
:1017F0004438024000300140000002400004024032
:1018000000080240000C0240001002400014024098
:1018100000180240001C0240003C01400AB18161F6
:1018200070470904FBE7000001488068704700002A
:10183000D801002070B5040025D094F83D000025A3
:1018400020B984F83C50204600F03EFA242084F869
:101850003D002068016821F00101016020680168F5
:1018600041F4004101602068016821F400410160F9
:1018700001F04EF84D4A6168914201D84C4900E0B0
:101880004C49884201D2012070BD4B492368B0FB0E
:10189000F1F15E6826F03F060E435E606368934296
:1018A00006D94FF4967359434FF47A73B1FBF3F1B1
:1018B0002368491C1E6A26F03F063143196261689D
:1018C000914210D84900401EB0FBF1F2521CC2F305
:1018D0000B02042A01D2042022E0B0FBF1F0401CEC
:1018E000C0F30B001CE0A268F2B301EBC10303EBF1
:1018F0000116431EB3FBF6F35B1C43F480431B0548
:1019000049D092B301EBC10202EB0111401EB0FBC2
:10191000F1F0401CC0F30B0040F4804040F4004064
:101920002168CA694CF6FF739A431043C861D4E931
:10193000071001432068026822F0C00211430160D1
:10194000D4E9030101432068826848F2FF339A43D7
:1019500011438160D4E9050108432168CA6822F077
:10196000FF021043C86001E00EE016E02068016845
:1019700041F0010101602564202084F83D002563C9
:1019800084F83E50002070BD01EB4106431EB3FBBE
:10199000F6F35B1CB3E70120C2E701EB4101401EF7
:1019A000B0FBF1F0401CC0F30B00B7E7A0860100CC
:1019B00080841E0000093D0040420F002DE9F84FD1
:1019C0001F4690468A460446DDF82890FFF72CFF14
:1019D000054694F83D00202875D1192301226C4951
:1019E0002046009501F0C8FE0028F5D194F83C008F
:1019F000012868D0012084F83C0020680168C907EC
:101A000003D1016841F0010101602068016821F4FF
:101A100000610160222084F83D00102084F83E001F
:101A200000262664C4F824806785608D2085594887
:101A3000E0622B464A465146204601F0B3FD00289D
:101A400078D1208D544F68B1012814D00228206825
:101A5000016816D041F480610160206841698069A5
:101A6000009087E02068416981690091016841F434
:101A7000007101607EE02068016821F480610160EE
:101A8000F0E721F4806101602068016841F40061A1
:101A9000E2E7032848D801280AD0022814D04B4690
:101AA000002239462046009501F066FED8BB27E0AB
:101AB0002A464946204601F0DEFEA0BB20680069A8
:101AC000616A08704DE061E04B46002239462046CD
:101AD000009501F051FE30BB2068016841F40071AF
:101AE000016020680069616A0870606A401C606279
:101AF000218D491E2185618D491E618521682EE059
:101B00002068016821F48061016020680069616AD1
:101B10000870606A401C6062208D401E2085608DC8
:101B2000401E6085D0E705E02A464946204601F080
:101B3000A2FE10B10120BDE8F88F20680069616A3B
:101B40000870606A401C6062218D491E2185618D8C
:101B5000491E618521684A69D24352070AD409693E
:101B60000170606A401C6062208D401E2085608D7F
:101B7000401E6085208D00288BD1202084F83D00F8
:101B800084F83E6084F83C600020D4E70220D2E76D
:101B9000020010000000FFFF040001002DE9F84FD3
:101BA0001F4690468A460446DDF82890FFF73CFE23
:101BB000054694F83D0020287FD119230122404991
:101BC0002046009501F0D8FD002876D194F83C001D
:101BD000012872D0012084F83C0020680168C90700
:101BE00003D1016841F0010101602068016821F41E
:101BF00000610160212084F83D00102084F83E003F
:101C000000262664C4F824806785608D20852D48D1
:101C1000E0622B464A465146204601F039FD90B914
:101C2000206841698069009036E02A46494620468E
:101C300001F054FE50B1206C042804D120680168E2
:101C400041F4007101600120BDE8F88F606A2168ED
:101C500000780861606A401C6062618D491E618580
:101C6000218D491E89B2218522685369DB435B07B8
:101C70000BD451B100781061606A401C6062608DC5
:101C8000401E6085208D401E20852A4649462046FC
:101C900001F04CFD0028CED1208D0028C5D154F88C
:101CA0003D0B016841F400710160202004F81E0919
:101CB000E67766770020C7E7FFE70220C4E7000069
:101CC000020010000000FFFF10B586B0044614218A
:101CD0006846FEF7BFFA13492068884220D11248AF
:101CE000016841F0020101600068694600F00200ED
:101CF0000590C02000901220019001200290032046
:101D00000390042004900948FFF7ACFC064810300B
:101D1000016841F400110160006800F400100590B2
:101D200006B010BD005400403038024000040240AC
:101D3000024881680278114481607047D801002010
:101D40000B4810B5016841F400710160016841F46D
:101D500080610160016841F480710160032000F03E
:101D60006FF8002000F006F800F024F8002010BD05
:101D7000003C024070B50D4D04464FF47A7128784E
:101D8000B1FBF0F00A490968B1FBF0F000F0C2FFC6
:101D900048B9102C07D200222146501E00F030F81E
:101DA00000206C6070BD012070BD0000D8010020D3
:101DB000E40100200A4808B5016841F4804101604F
:101DC000006800F4804000900548001F016841F061
:101DD00080510160006800F08050009008BD000054
:101DE00044380240002809DB00F01F020121914025
:101DF0004009800000F1E020C0F8001170470000A9
:101E0000F0B40E4B1B680C46C3F30223C3F1070565
:101E1000042D00D90425191D072901D2002300E053
:101E2000DB1E012606FA05F1491E214099409E401D
:101E3000761E16403143F0BC04F058B90CED00E0BA
:101E4000064900F0070208684FF6FF03184040EA11
:101E50000220034A10430860704700000CED00E0C8
:101E60000000FA0570470068416200207047F0B535
:101E70000368586A39B19C6A4FF4827600EB1444C7
:101E800000204D1E0AE040EA024098620FE006EB97
:101E90008007DF59401C04EB1744C0B2A842F6D3B8
:101EA00044EA02404FF4807202EB81015850002056
:101EB000F0BDD0F8040402F0B0BFC1EBC10200EBEA
:101EC0008202D0F80404926C02F003BFC1EBC1029D
:101ED00000EB8202D0F80404D2F8082202F05CBFC2
:101EE000D0F8040402F09BBF70B504460B0601F065
:101EF0000F00C0EBC00104EB81014FF001024FF075
:101F0000000503D581F83D203C3103E081F8FD5107
:101F100001F5FE71087094F8BC03012808D084F81C
:101F2000BC23206803F0F2FA84F8BC53002070BD93
:101F3000022070BD70B5044601F00F006268904247
:101F400001D9012070BD0B0601F00F01C1EBC101E9
:101F500004EB81014FF001024FF0000503D581F839
:101F60003D203C3103E081F8FD5101F5FE718D709B
:101F7000087094F8BC03012808D084F8BC232068BA
:101F800003F0A0FC84F8BC53002070BD022070BD9B
:101F900001F00F01C1EBC10100EB8100D0F8140288
:101FA00070472DE9F04104460F0601F00F00C0EB29
:101FB000C00104EB81014FF001064FF0000503D58D
:101FC00081F83D603C3103E081F8FD5101F5FE717F
:101FD00008708A60CB704A7802B1C880022B00D1A9
:101FE0000D7194F8BC03012809D084F8BC63206803
:101FF00003F0DCF9284684F8BC53BDE8F0810220E8
:10200000FBE770B50C4601F00F05C5EBC50100EB11
:102010008101C1F81032C1F808220023C1F814323E
:1020200081F8FD3181F8FC51036901F5FE71012B46
:1020300000D10A612207027C006803D003F09AFCF9
:10204000002070BD03F086FBFAE770B504460D462C
:1020500001F00F006168884201D9012070BD290696
:102060004FF000064FF0010207D5C0EBC00104EBB2
:10207000810181F83D203C3107E0C5EBC50104EB4F
:10208000810181F8FD6101F5FE718A70087094F894
:10209000BC03012807D084F8BC23206803F03EFC71
:1020A000280702D007E0022070BD217C04F5717280
:1020B000206803F0DBFB84F8BC63002070BD70B5C2
:1020C0000C4601F00F05C5EBC50100EB81010B6566
:1020D0008A6400234B65012381F83D3001F83C5FA1
:1020E0000369012B00D10A612207027C006803D03A
:1020F00003F040FC002070BD03F02CFBFAE7000069
:102100002DE9FC5F05680446284603F05CFD0028C5
:102110007ED1206803F083FD002879D0206803F089
:102120007EFD800704D52068416901F0020141610C
:10213000206803F074FD010304F571704FF0010A8B
:102140004FF0080B009075D50026206803F046FD7F
:102150000746DFF808946BE0F80767D0F1B2206813
:1021600003F055FD8046C00707D005EB4611C1F8C6
:1021700008AB3146204601F0C9FD5FEA087032D550
:102180002068016C00EB46100191D0F8081B226911
:10219000012A019A0FD0F24B9A4214D1090403D5B7
:1021A0004FF40041C0F8081B204600F0C9FA20692E
:1021B00001280FD013E04A4505D9090403D54FF48F
:1021C0000041C0F8081B204600F0BAFA01984845C3
:1021D000EDD804E020680121009A03F047FB05EBED
:1021E0004611C1F808BB5FEAC86004D505EB46118B
:1021F0001020C1F8080B5FEA88600ED5206901281D
:1022000004D120680121009A03F030FB202100E076
:10221000A1E105EB4610C0F8081B5FEA884005D530
:1022200005EB46104FF40051C0F8081B7F08761CE0
:10223000002F91D1206803F0F2FC40034FF0000919
:102240005FD5206803F0C3FC0746002657E0F80777
:1022500053D0F1B2206803F0C8FC8046C00726D0F6
:1022600006F00F020AFA02F0D5F834288243C5F8C6
:10227000342805EB4610C0F808A92069012807D1C9
:10228000C6EBC60004EB8000D0E911211144816443
:10229000F1B22046FFF711FE2069012807D136B9B7
:1022A000206D20B920680121009A03F0DFFA5FEA6F
:1022B000087003D505EB4611C1F808B95FEAC8609C
:1022C00004D505EB46111020C1F808095FEA486003
:1022D00004D505EB46104021C0F808195FEA887064
:1022E00004D505EB46100221C0F808195FEA086022
:1022F00003D53146204601F077FD7F08761C002F7C
:10230000A5D1206803F08BFC002811DAD5F8040869
:1023100020F00100C5F8040894F8F40301282BD03C
:10232000204600F0F1F92068416901F00041416167
:10233000206803F074FC00050BD5D5F80808C00729
:1023400002D0204600F024FA2068416901F40061BF
:102350004161206803F063FCC00461D5D5F804082E
:1023600020F00101C5F804181021206803F00CFCCE
:1023700000214FF67F321AE084F8F49300212046C2
:10238000FFF770FDCFE700BF05EB4110C0F808294B
:10239000D0F8003923F40013C0F80039C0F8082B36
:1023A000D0F8003B23F40013C0F8003B491C6068E0
:1023B0008842E9D8D5F81C0840F00111C5F81C186E
:1023C000206B002828460DD0D0F8840840F00B0080
:1023D000C5F88408D5F8440840F00B012846C5F834
:1023E00044180DE0D0F8140842F22B010843C5F858
:1023F0001408D5F8100840F00B012846C5F810184D
:10240000D0F8000820F4FE61C5F80018217C20688F
:10241000009A03F02BFA2068416901F48051416170
:10242000206803F0FCFB800415D5206802F0FEFF55
:10243000206803F0BBFBE06000F064FA0146227BF9
:10244000206803F027FC204600F048F92068416925
:1024500001F400514161206803F0E1FBC00634D56E
:102460002068816921F0100181612F6A07F00F0057
:10247000C0EBC00004EB8006C7F3434006F5FE76D0
:10248000022802D0062811D01AE047F6F070074261
:1024900016D0C7F30A1217462846F16803F0C3FBAB
:1024A000F0683844F060B069384408E008222846F3
:1024B000009903F0B8FBB069C7F30A110844B06192
:1024C0002168886940F010008861206803F0A7FB4C
:1024D000000707D5204600F01BF92168486900F085
:1024E00008004861206803F09AFBC00208D500216B
:1024F000204600F037F82168486900F480104861F0
:10250000206803F08CFB800208D50021204600F0F3
:102510002DF82168486900F400104861206803F034
:102520007EFB400007D52046FFF7C3FC20684169C9
:1025300001F080414161206803F071FB40070AD53A
:1025400020684568680702D52046FFF7C9FC206867
:10255000416829434160BDE8FC9F00000A30544FA8
:102560000A31544FD0F8040402F0A8BCD0F8040497
:1025700002F0A6BC2DE9F0418AB0040005D094F821
:10258000BD032668002520B108E001200AB0BDE89F
:10259000F08184F8BC53204600F05EF8032084F8F4
:1025A000BD03F06BC00500D42561206803F0CCF8B2
:1025B00004F11001282288466846FDF732FE94E8AF
:1025C0000F0002F04DFF0226C8BB0021206803F077
:1025D00038FB002001270EE0C0EBC00104EB8101B5
:1025E00081F83D7001F83C0FC880CD708D60CD60E2
:1025F000401CC0B24D6161688142EDD8002011E0FD
:10260000C0EBC00104EB810181F8FD5181F8FC01B0
:1026100081F8FF51C1F80452C1F80852401CC0B201
:10262000C1F8105261688142EAD8282241466846C2
:10263000FDF7F7FD94E80F0002F0C0FF10B184F839
:10264000BD63A2E784F8385084F8BD73206802F0B7
:10265000A9FF00209AE7000010B586B004461421B7
:102660006846FDF7F7FD2068B0F1A04F2FD119485B
:102670000021026842F001020260006800F00100DF
:1026800005904FF4C05000900220CDE901010320D5
:1026900003900A20049069460F48FEF7E3FF0D48B7
:1026A000001D016841F0800101600A481430016892
:1026B00041F4804101600068002200F480400590F0
:1026C00011464320FFF79CFB4320FFF78BFB06B02E
:1026D00010BD0000303802400000024070B50446D2
:1026E000C068012570B1022801D0FEF773FB2946AE
:1026F000D4F8040402F035FCD4F80404BDE87040BA
:1027000002F0F5BB0025F2E7D0F8040402F017BC94
:10271000D0F8040402F019BC10B5044690F8BC03CC
:1027200001280BD0012084F8BC0384F838102068FD
:1027300003F09EFA002084F8BC0310BD022010BDF7
:10274000D0F8042400F57171104602F016BC10B5E3
:102750000446006894F8BC13012906D0012184F8CE
:10276000BC13A16A012902D008E0022010BDA169B2
:10277000012903D0816B41F480318163206802F02C
:1027800005FF206803F0EAF9002084F8BC0310BDBF
:1027900010B50446D0F8040402F02EFC2068D0F8EE
:1027A000001E41F00101C0F8001E206A002804D07C
:1027B0000248016841F00601016010BD10ED00E023
:1027C000704700002DE9F0470E46050065D0DFF8A0
:1027D0001481D8F80000F7B200F00F00B04207D221
:1027E00088F80070D8F8000000F00F00B04254D113
:1027F00028683D4C810712D5400703D5206840F476
:10280000E05020602878000703D5206840F460403D
:1028100020602068A96820F0F00008432060287834
:10282000C0072DD0304968680839012812D0022825
:1028300013D0032811D00968890700292DDA2168EF
:1028400021F0030101432160FEF7EEFF814641F2D2
:10285000883A0EE009688903EFE709688901ECE727
:10286000FEF7E2FFA0EB0901514502D90320BDE8C4
:10287000F0872068696800F00C00B0EB810FEFD1A1
:10288000D8F80010404601F00F01B14207D9077097
:10289000006800F00F00B04201D00120E7E728787F
:1028A000400705D52068E96820F4E050084320601F
:1028B0002878000706D52068296920F4604040EA9E
:1028C000C100206000F044F82168084AC1F30311F8
:1028D000515CC8400649086006480068FFF74AFA9C
:1028E0000020C4E7003C024008380240D86B0008D2
:1028F000E4010020DC01002001490120C864704788
:10290000000047420148006870470000E4010020D1
:102910000448054900680968044AC1F38221515CF2
:10292000C8407047E401002008380240E86B000806
:102930000448054900680968044AC1F34231515C02
:10294000C8407047E401002008380240E86B0008E6
:10295000104810B5006810F00C010F4818D0042979
:1029600016D0082914D10B4C241F216801F03F0216
:10297000216821680023C1F38811A1FB0001FDF744
:102980001FFC2168C1F30141491C4900B0FBF1F073
:1029900010BD0000083802400024F400054810B5BE
:1029A0000068000605D5FFF70BFF02498020891C4F
:1029B000087010BD0C3802402DE9F84F040076D0A5
:1029C0002078DFF838A3CE4DC00749D0DAF80010E0
:1029D0005046C1F38101012908D00068C0F381008D
:1029E00002280AD1281D0068400206D52868800305
:1029F00036D560680028E2D032E06068B0F5803FEC
:102A000010D0B0F5A02F286810D020F480302860B6
:102A1000286820F4802028606068A0B1FEF704FFD9
:102A200006460CE0286840F48030F4E740F480204B
:102A30002860F7E7FEF7F8FE801B642873D8286843
:102A40008003F7D50CE0FEF7EFFE064605E000BF79
:102A5000FEF7EAFE801B6428F0D828688003F7D4CC
:102A60002078DFF8A08280074FF000093ED5DAF821
:102A70000010504611F00C0F09D00068C0F381001F
:102A800002280BD19D48001F0068400206D4286828
:102A9000800715D5E068012809D111E0E068B8B1D8
:102AA0000120C8F80000FEF7BFFE064605E020E161
:102AB000FEF7BAFE801B0228C0D828688007F7D529
:102AC0002868216920F0F80040EAC10028600DE084
:102AD000C8F80090FEF7A8FE064604E0FEF7A4FE44
:102AE000801B02281FD828688007F7D420780007A9
:102AF00022D5824E844861696C3671B10121016032
:102B0000FEF792FE074604E0FEF78EFEC01B022889
:102B100009D830688007F7D50EE0C0F80090FEF7BE
:102B200083FE074605E082E0FEF77EFEC01B02281A
:102B30007DD830688007F7D42078400768D5DFF863
:102B4000BCB100270BF1380BDBF80000C0000BD440
:102B5000DBF8001041F08051CBF80010DBF80000EA
:102B6000012700F080500090684E3068C00510D4F6
:102B7000306840F480703060FEF756FE009005E04B
:102B8000FEF752FE0099401A022850D83068C0055E
:102B9000F6D55A4EA068683601280FD0052830684F
:102BA00010D020F001003060306820F00400306068
:102BB000A068B8B1FEF738FE00900FE0306840F032
:102BC0000100F4E740F004003060F7E7FEF72CFE68
:102BD0000099411A41F28830814266D830688007F6
:102BE000F4D50EE0FEF720FE009007E0FEF71CFE95
:102BF0000099411A41F28830814256D830688007E6
:102C0000F4D42FB1DBF8001021F08051CBF8001084
:102C1000A069D0B3DAF800205146C2F38102022A3B
:102C20004AD00228484607D0C8F8600000E03CE0DF
:102C3000FEF7FAFD04463BE04746C8F86000FEF7A1
:102C4000F3FD064605E000BFFEF7EEFD801B0228FF
:102C50002BD828688001F7D4D4E907010843A16A7A
:102C60002B4A490802EB0141626A41EA821108439A
:102C700094F82C1040EA01612048001F01600120F7
:102C80003866FEF7D1FD044605E034E0FEF7CCFDE2
:102C9000001B022809D828688001F7D52BE000BF67
:102CA000FEF7C2FD001B022802D90320BDE8F88F01
:102CB00028688001F4D41EE00128F7D00868E26992
:102CC00000F48001914214D1226A00F03F01914248
:102CD0000FD147F6C071626A0140914209D1A26AE0
:102CE00000F44031914204D1E16A00F07060884202
:102CF00001D00120DAE70020D8E7000008380240C0
:102D00000038024000004742800E474200700040F9
:102D10000000FFFF10B5401EB0F1807F01D30120FD
:102D200010BD4FF0E02460610F21601703F0DEF961
:102D30000020A06107202061002010BD704770476F
:102D400070B590F83C20012A32D0012480F83C4034
:102D5000022280F83D2003685A689D6822F07006C0
:102D60000A6832435A60134B02689A4214D0B2F197
:102D7000804F11D0104B9A420ED0104B9A420BD07C
:102D80000F4B9A4208D00F4B9A4205D00E4B9A42F5
:102D900002D00E4B9A4204D1496825F080031943B2
:102DA000916080F83D40002180F83C10084670BDDD
:102DB000022070BD000001400004004000080040F7
:102DC000000C004000040140004001400018004099
:102DD00010B5040003D094F83D0010B107E00120C5
:102DE00010BD002084F83C00204600F00DF80220C1
:102DF00084F83D00211D206801F0C6F8012084F808
:102E00003D00002010BD000008B501681448B1F174
:102E1000804F14D0134A914220D1016841F0020141
:102E200001600068002200F00200009011461D20A1
:102E3000FEF7E6FF1D20BDE80840FEF7D3BF01689E
:102E400041F0010101600068002200F001000090E3
:102E500011461C20FEF7D4FF1C20ECE708BD000043
:102E600040380240000400400168CA6842F0010294
:102E7000CA600068816801F00701062903D0016873
:102E800041F001010160002070470168CA6822F02A
:102E90000102CA600068016A41F21112114207D1B1
:102EA000016A9210114203D1016821F00101016011
:102EB0000020704770B5044690F83C00012817D0F8
:102EC000012584F83C50022084F83D002068826887
:102ED00022F0770222F47F4282600868502830D0C6
:102EE0000DDC20284DD005DC98B310283BD148E0FC
:102EF000022070BD302844D0402834D139E0602809
:102F000028D0702806D0B0F5805F2CD0B0F5005FD7
:102F100029D10AE0CB68D1E90121206801F098F8B5
:102F20002068816841F0770109E0CB68D1E901218F
:102F3000206801F08DF82068816841F4804181604B
:102F400011E0CA684968206801F094F850212068AF
:102F500007E016E0CA684968206801F09CF8602123
:102F6000206801F07FF884F83D50002084F83C0090
:102F700070BDCA684968206801F07CF8402120686B
:102F8000EFE7226801461046EBE7704770B504464C
:102F9000006801694FF00005C943890715D4C1686D
:102FA000C943890711D4E91E0161012020772068F7
:102FB00080698007204602D0FFF7E7FF04E000F0B9
:102FC00098F8204600F096F8257720680169C943F3
:102FD000490717D4C168C943490713D46FF00401E6
:102FE0000161022020772068806910F4407F20462C
:102FF00002D0FFF7CAFF04E000F07BF8204600F0A3
:1030000079F8257720680169C943090716D4C16892
:10301000C943090712D46FF0080101610420207729
:103020002068C0698007204602D0FFF7AEFF04E0A9
:1030300000F05FF8204600F05DF825772068016910
:10304000C943C90617D4C168C943C90613D46FF070
:1030500010010161082020772068C06910F4407FCA
:10306000204602D0FFF791FF04E000F042F820462E
:1030700000F040F8257720680169C943C90708D1E5
:10308000C168C943C90704D1891E0161204600F007
:1030900033F820680169C943090609D4C168C943E6
:1030A000090605D46FF0800101612046FFF746FE56
:1030B00020680169C943490609D4C168C943490662
:1030C00005D46FF040010161204600F085F82068CA
:1030D0000169C94389060BD4C168C943890607D46D
:1030E0006FF0200101612046BDE87040FFF727BE68
:1030F00070BD7047704700002DE9F04106462DED88
:10310000028B4FF0804700682B4DB842A5F1800438
:1031100029D1207820BBE07A90F00100E0721AD12A
:10312000A07A80F00100A07294ED120AB5EEC00AF8
:10313000F1EE10FA07D09FED210B85ED0C0B9FED02
:10314000210A84ED120A2048FFF79FFE608AF86288
:103150001D48FFF789FEE07A012801D1FDF7E2FC66
:10316000207B401C20731949306888421FD195ED9F
:103170000A0B9FED178B51EC100B53EC182BFDF73E
:1031800094F953EC182BFDF71EF9FDF77FFA00EECA
:10319000100A84ED1E0AD4ED120A30EE800A84ED86
:1031A000120ABDEEC00A85ED040A85ED010ABDECE8
:1031B000028BBDE8F08100008000002000000000CC
:1031C0000000000000000000240400200004004073
:1031D0000000000000004E407047704770B5026864
:1031E00004461068D168536910F00F0F52D003F0F5
:1031F000010501F490762E435FD0C20705D0CA05C1
:1032000003D5E26B42F00102E263420705D5DA071B
:1032100003D0E26B42F00202E263820705D5DA07CF
:1032200003D0E26B42F00402E263020707D501F02B
:1032300020022A4303D0E26B42F00802E263E26B11
:10324000002A33D0800604D5880602D5204601F036
:10325000F3F820684069E16BC0F38010090700D4DF
:1032600028B3204601F0DAF82068416949061AD5EA
:10327000416921F040014161606BA0B11B490165CA
:10328000606BFEF758F8002810D0606B016DBDE848
:1032900070400847830610D58B060ED52046BDE842
:1032A000704001F0C9B82046FFF797FF70BD204677
:1032B000FFF793FF0020E06370BD030606D50B0601
:1032C00004D52046BDE8704001F096B94006F3D51C
:1032D0004806F1D5D168204621F04001D160202177
:1032E00084F8391000F045F970BD00000D44000865
:1032F00070B5040004D094F83900002510B106E040
:10330000012070BD84F83850204600F023F82420B6
:1033100084F839002068C16821F40051C16020465A
:1033200001F0D6F82068016921F49041016120681C
:10333000416921F02A0141612068C16841F40051CE
:10334000C160E563202084F8390084F83A00002049
:1033500070BD000010B586B0044614216846FCF725
:1033600079FF18492068884229D11748016841F43B
:1033700080210160006800F4802005901248103818
:10338000016841F0020101600068694600F0020036
:1033900005904FF4406000900220019001200290BF
:1033A00003200390072004900848FEF75BF90022F1
:1033B00011462720FEF724FD2720FEF713FD06B057
:1033C00010BD0000004800404038024000040240A8
:1033D00090F83A30202B22D1F9B1F2B190F8383080
:1033E000012B1CD081628285C2850021C16322220B
:1033F00080F83A2080F838100168CA6842F4807278
:10340000CA6001684A6942F001024A610068C16805
:1034100041F02001C1600020704701207047022068
:103420007047000010B52348FDF7BAFC21499839D0
:1034300088654A7B6D2A16D00CDC632A29D004DC0F
:10344000432A31D05A2A30D12CE0652A11D0692A7A
:103450002BD10CE06F2A1ED0702A11D0712A11D006
:10346000722A22D101E048701FE0C8711DE0087285
:103470001BE010F0FF00487217D10120487214E0E1
:10348000887112E0C0B248713C280ED33C204871CC
:103490000BE0C88209E000EE100AB8EEC00A81ED28
:1034A0001B0A02E0887000E0C870BDE8104000F020
:1034B0001BBE0000980000202DE9F843044690F858
:1034C00039001F4616460D46202850D1B5B1AEB181
:1034D00094F8380001284AD0012084F838004FF0D1
:1034E0000008C4F83C80212084F83900FEF79CF9DC
:1034F000A6848146E68484F8388026E00120BDE871
:10350000F883E08C401EE084A0684B46B0F5805FF5
:103510004FF000024FF080012046009703D001F0E9
:103520009CF8E8B90DE001F098F8C8B9288821683E
:10353000C0F308004860206908B16D1C05E0AD1CAF
:1035400003E0216815F8010B4860E08C0028D8D111
:103550004B46002240212046009701F07EF808B13A
:103560000320CCE7202084F839000020C7E70220A0
:10357000C5E77047FEE701684A69D24352050FD498
:103580006FF480624A61002140F8301F20224273AC
:103590008173026942F004020261017301207047E5
:1035A000002070472DE9F84F0446C06A1E46934636
:1035B0000D4621680A6842F480620A60082807D034
:1035C000012805D010F5803F02D0206B112804D1CE
:1035D0002068016841F4807101604FF001195B4679
:1035E000002249462046009600F0C6F84FF40078C5
:1035F00040B120680068C00501D5C4F840800320B0
:10360000BDE8F88F2069DFF884A0B0F5804F0FD0B7
:103610000620216800EAD51747F0F000086133461C
:103620005A460AF10601204600F0DAF858BB03E0DA
:10363000E8B240F001001CE02168E8B208613346BE
:103640005A465146204600F0CBF8E0B9206841695F
:1036500081690091016841F4807101605B4600223C
:1036600049462046009600F087F80028C1D147F06F
:10367000F1002168086133465A465146204600F061
:10368000AFF80028BCD00120BAE70000020001001A
:10369000F8B50446C06A1E460D461746082807D0EE
:1036A000012805D010F5803F02D0206B122804D1EC
:1036B0002068016841F480710160134600224FF0D8
:1036C00001112046009600F057F840B120680068CC
:1036D000C00502D54FF4007020640320F8BD2069B6
:1036E000B0F5804F0ED00620216800EAD51040F0DA
:1036F000F000086133463A460B49204600F070F866
:1037000078B902E005F0FE0000E0E8B22168086147
:10371000054933463A46891F204600F061F80028E3
:10372000DCD00120F8BD00000800010070B516468D
:103730000D4604460DE02046FFF71DFF08B10120AD
:1037400070BD681C05D0FEF76FF8801BA84207D833
:1037500035B120684069C0434007ECD4002070BDFB
:10376000002044F8300F20216173A073216941F0DB
:10377000200121612073E2E72DE9F0471E469046C3
:103780000D460446C1F30747DDF8209008E0701CA1
:1037900006D0FEF749F8A0EB0900B0420FD876B189
:1037A0002068012F18D0806925EA00000004000C71
:1037B00014D000214145EAD00020BDE8F087002068
:1037C00044F8300F20216173A073216941F020017A
:1037D000216120730120F0E74069E5E70121E9E775
:1037E0002DE9F0479A4691460E46044600254FF0D3
:1037F0002008C1F3074725E020684069C043400521
:1038000014D42068016841F40071016021686FF4EC
:1038100080604861256384F83D8084F83E50206CC8
:1038200040F00400206484F83C501FE0B9F1FF3FF1
:1038300008D0FDF7F9FFA0EB0A0149450CD8B9F112
:10384000000F09D02068012F13D0806926EA0000FC
:103850000004000C0BD0CFE744F8305F84F80D80F3
:10386000A573206940F02000206125730120BDE888
:10387000F0874069EAE72DE9F041002590460E46C1
:103880000446202717E04069C043C0060CD454F812
:10389000301B6FF01000486144F810596777A57726
:1038A000206A2062257717E0FDF7BEFFA0EB080035
:1038B000B04208D83EB120684169C9434906E2D404
:1038C0000020BDE8F08144F8305F6773A57320697C
:1038D00040F02000206125730120F2E770B5164604
:1038E0000D4604460DE02046FFF745FE08B10120D5
:1038F00070BD681C05D0FDF797FF801BA84207D854
:1039000035B120684069C0430006ECD4002070BD8A
:10391000002044F8300F20216173A073216941F029
:10392000200121612073E2E7F0B500230A2430254D
:1039300037261F4611E000BFB4EB107F02D905EB1C
:10394000107C01E006EB107C01F813C001EB430C86
:1039500000015B1C8CF80170DBB29342ECD3F0BD2C
:103960007FB500211B48009101910291184A0391F3
:1039700002604FF4803242600124120204618260CE
:10398000047680F82010144AC0E90A210225C56196
:10399000C16080F830404461FDF711FB08B1FDF7CC
:1039A00019FA07200094CDE9014069460948FDF75E
:1039B0005DFA08B1FDF70EFA0320CDE9000569466E
:1039C0000448FDF753FA002801D0FDF703FA7FBD44
:1039D00000200140140300200100000F1CB500244A
:1039E0000C4900940A48019408600846FDF71BFC46
:1039F00008B1FDF7EFF900940022694605480194EB
:103A0000FDF7F0FB002801D0FDF7E4F91CBD000034
:103A100000740040BC030020094808B5016841F467
:103A2000800101600068002200F4800000901146CF
:103A30003C20FEF7E5F9BDE808403C20FEF7D2B98E
:103A4000303802402DE9F04F87B014216846FCF76A
:103A500001FC3B480024016841F01001016001684D
:103A600001F010010591016841F0800101600168D9
:103A700001F080010591016841F0040101600168D5
:103A800001F004010591016841F001010160016844
:103A900001F001010591016841F002010160016836
:103AA00001F002010591016841F008010160006820
:103AB000DFF8908000F008000590002227214046A2
:103AC000FDF7ACFEDFF8809000224C214846FDF760
:103AD000A5FEDFF878A04FF480460022314650461C
:103AE000FDF79CFEDFF868B0B71100223946584652
:103AF000FDF794FE272000900125CDE90154694689
:103B000040460394FDF7AEFD4C200090CDE90154F2
:103B1000694648460394FDF7A5FD0096CDE901549A
:103B2000694650460394FDF79DFD0097CDE9015489
:103B3000694658460394FDF795FD07B0BDE8F08F40
:103B400030380240001002400008024000040240E9
:103B5000000C02400D4810B50B4901600C49416052
:103B600000214FF480428160C0E90312416181610C
:103B7000C1610162FDF75EFE002803D0BDE8104080
:103B8000FDF728B910BD000000540040D00300200C
:103B9000A086010010B586B0002418480094019456
:103BA0000294039404944FF080410594016042F222
:103BB000CF01C0E9011440F2F311C0E903148021E0
:103BC0008161FFF705F908B1FDF704F94FF4805062
:103BD000009069460948FFF76DF908B1FDF7FAF85A
:103BE0002020CDE9040404A90448FFF7A9F800281F
:103BF00001D0FDF7EFF806B010BD0000240400204E
:103C000010B586B0002418480094019402940394DF
:103C1000049414490594016042F2CF01C0E90114F3
:103C200040F2F311C0E9031480218161FFF7D0F85D
:103C300008B1FDF7CFF84FF48050009069460A486C
:103C4000FFF738F908B1FDF7C5F82020CDE90404E5
:103C500004A90548FFF774F8002801D0FDF7BAF869
:103C600006B010BD00040040640400200C4810B5EC
:103C70000A4901604FF461414160002181600C22DA
:103C8000C160C0E904128161C161FFF731FB002806
:103C900003D0BDE81040FDF79DB810BD00480040BE
:103CA000A404002010B500220F49104800F0EAFFDC
:103CB00008B1FDF78FF80E490C4801F0C3F908B1BF
:103CC000FDF788F80B49094800F0E6FD08B1FDF75B
:103CD00081F8064801F00CFA002803D0BDE8104036
:103CE000FDF778B810BD000078010020E404002042
:103CF000C4020020C8010020FEE7FEF74FBE00000E
:103D00000148FEF7FDB90000401800202DE9F04100
:103D1000044600680E46016C00EB4615D5F8080B0A
:103D2000276920234FF40042012F08D02C4FB942BD
:103D30004FD1010449D500BFC5F8082B4DE0DFF88D
:103D4000A4C05FEA007E04F5717711D5614503D9FF
:103D5000000401D5C5F8082B2046FEF7F1FC3A46D1
:103D60000121206801F082FD0820C5F8080B34E02D
:103D70005FEA806E02D5C5F8083B2EE010F0280FF0
:103D80002BD1614501D90004D6D4C6EBC60004EBA3
:103D90008000D5F8102BD0F80412C2F312028A1A50
:103DA000C0F81422D0F808221144C0F80812F1B269
:103DB0002046FEF78BF886B9D4F8100268B93A4667
:103DC0000121206801F052FD07E0800601D5C5F809
:103DD000083BF1B22046FEF779F80020BDE8F081FB
:103DE0000A31544F0A30544F2DE9F84F0E46C1EBBB
:103DF000C60100EB810481460568D4E914103C3407
:103E0000884202D90120BDE8F88F081AA1688142D2
:103E100000D20846C01C870805EB46181BE000BF0F
:103E2000A0EB010AA068504500D282460AF10300C7
:103E3000870899F8100000901FFA8AF3F2B228461A
:103E4000E16801F09BFFE16801EB0A00E060A16915
:103E500001EB0A00A061D8F8180980B2B84205D376
:103E6000D4E90501814201D20028D9D1D4E9050164
:103E7000884208D806F00F0101208840D5F8341890
:103E80008143C5F834180020BDE7704710B5FCF732
:103E90008CFB9FED081B53EC112BFCF794FA9FED64
:103EA000071B53EC112BFCF78EFAFCF7EFFB00EE2F
:103EB000100A10BD000000000000B040000000002B
:103EC0000000003F7047FDF733BF000030B593B0EE
:103ED00030216846FCF7BEF914210CA8FCF7BAF9AA
:103EE0001A480025016841F080510160006800F027
:103EF000805011901648016841F4804101600068CB
:103F0000022400F4804011900120009000040190F0
:103F10008001CDE9064008200890A820CDE90904D9
:103F200007200B906846FEF747FD0CA90F2081E89B
:103F300031004FF4A0500F90E002109005210CA822
:103F4000FEF740FCFEF7D8FC13B030BD403802400D
:103F5000007000400548016841F4700101600349A8
:103F60004FF00060803908607047000088ED00E085
:103F70000148FFF70BB80000240400200148FFF7B8
:103F800005B8000064040020F0B50268254C264DF9
:103F9000264E274F274B4FF0804CA04209D060455A
:103FA00007D0A84205D0B04203D0B84201D0984211
:103FB00004D122F0700E4A6842EA0E02A0421BD0E1
:103FC000604519D0A84217D0B04215D0B84213D0DE
:103FD000984211D0184DA8420ED0184DA8420BD0CF
:103FE000174DA84208D0174DA84205D0164DA8423B
:103FF00002D0164DA84203D122F44075CA682A4364
:104000004D6922F080022A4302608A68C2620A680F
:104010008262A04201D0984201D109690163012165
:104020004161F0BD00000140000400400008004074
:10403000000C0040000401400040014000440140E9
:104040000048014000180040001C004000200040D3
:1040500010B5846842EA032224F47F440A432243D1
:10406000826010BD826822F070020A4342F00701AC
:104070008160704710B5036A046A24F00104046289
:10408000846924F0F00444EA021423F00A020A438B
:104090008461026210BD10B5036A23F0100303624D
:1040A0008369046A23F4704343EA023224F0A003D4
:1040B00043EA01118261016210BD0000094810B598
:1040C000016841F008010160016841F004010160EC
:1040D0004FF4FA60FDF7B4FA02F00EFABDE81040B2
:1040E00002F0F2B9140802402DE9F05FA24C607BA7
:1040F0005A2804D1A07808B1012800D120709E4F21
:1041000094F801C0FE793D7A7B7A7A79B979F88A98
:10411000D7ED1C0A97ED1B0AF83707F1100907F1D4
:10412000300A07F1200B07F1500EBCF1090F6CD2D9
:10413000DFE80CF06B0510322143547B57003E70D2
:104140007D70BB70FA703971F880C7ED030A87ED96
:10415000020A5AE089F8006089F8015089F80230B3
:1041600089F8032089F80410A9F80600C9ED030AAC
:1041700089ED020A49E08AF800608AF801508AF85D
:1041800002308AF803208AF80410AAF80600CAED63
:10419000030A8AED020A38E08BF800608BF80150C0
:1041A0008BF802308BF803208BF80410ABF8060074
:1041B000CBED030A8BED020A27E08EF800608EF843
:1041C00001508EF802308EF803208EF80410AEF8FD
:1041D0000600CEED030A8EED020A16E0DFF89C81A0
:1041E00003E0DFF8988108F1100888F8006088F88B
:1041F000015088F8023088F8032088F80410A8F8E5
:104200000600C8ED030A88ED020AE07801284CD1C7
:104210005B48BCF1090F80F800C038D2DFE80CF031
:10422000370A1D60477992979400DFF85081A8F112
:104230002008DAE73978417079788170B978C170EF
:10424000F978017139794171F988C18097ED030AD4
:1042500080ED030A97ED020A17E099F800204270FA
:1042600099F80120827099F80220C27099F8032011
:10427000027199F804204271B9F80620C28099EDC4
:10428000030A80ED030A99ED020A80ED020A00F0AC
:104290007DF80125E5723B48FEF7E6FD9FED3A0A01
:1042A000002084ED120A2571E070BDE8F09F9AF8B5
:1042B000002042709AF8012082709AF80220C270A1
:1042C0009AF8032002719AF804204271BAF8062085
:1042D000C2809AED030A80ED030A9AED020AD4E740
:1042E0009BF8002042709BF8012082709BF802200E
:1042F000C2709BF8032002719BF804204271BBF846
:104300000620C2809BED030A80ED030A9BED020AA2
:10431000BBE79EF8002042709EF8012082709EF854
:104320000220C2709EF8032002719EF804204271A0
:10433000BEF80620C2809EED030A80ED030A9EEDC2
:10434000020AA2E70D4904E00C49103101E00B49D3
:1043500020390A7842704A7882708A78C270CA78A6
:1043600002710A794271CA88C28091ED030A80ED18
:10437000030A91ED020A88E700000020580100209E
:1043800004030020240400200000000070B51C4934
:104390001C4A1D4C2DED048B4878B2FBF0F000EE6A
:1043A000100AB8EE408A84ED1A8A8D78C8782844BD
:1043B000FCF7FBF841EC190B2846FCF7F6F853EC38
:1043C000192BFCF772F8FCF761F900EE100A84ED86
:1043D000170A20EE080A84ED180A78EE400ABCEEAF
:1043E000C00AC4ED190A10EE101ABCEEE00A491E0C
:1043F00010EE100A2182401E6082BDEC048B70BD5D
:1044000004030020C02709000000002010B5806BC5
:104410000021C185C184FEF7E0FE10BD0168CA68B5
:1044200022F49072CA6001684A6922F001024A616E
:10443000202180F83A10704710B590F83A102229E0
:1044400001D0022010BD8168B1F5805F11D00169F3
:10445000002901681FD0496801F07F03816A4A1C66
:1044600082620B70C18D491E0904090CC18518D0E8
:104470002BE00269816A002A0268526805D0D2B234
:104480000A80816A491C8162ECE7C2F308020A8053
:10449000816A891CF7E74A68816A4B1C83620A704B
:1044A000E0E70168CA6822F02002CA600168CA68B1
:1044B00022F48072CA6001684A6922F001024A61EE
:1044C000202180F83A10FEF7ADFF002010BD00005B
:1044D0002DE9F041044600680169E26821F4405189
:1044E000114301612169A068E269084361691143D0
:1044F00008432168CA6849F20C639A430243CA60C0
:1045000020684169A26921F4407111434161E06969
:10451000192764253226B0F5004F354A3549206801
:104520004FF0000806D0884201D0904236D1FEF705
:10453000FFF935E0884201D0904202D1FEF7F8F948
:1045400001E0FEF7E5F961684A18A0FB070148EBB6
:104550000803FBF735FE0146B0FBF5F00201B1FBA5
:10456000F5F06FF01803584301EB800006EBC00034
:10457000B0FBF5F000F0F80002EB4002B1FBF5F003
:10458000584301EB800006EBC000B0FBF5F000F0F3
:104590000700216810448860BDE8F081FEF7B8F993
:1045A00061688B0F8A00A0FB0701FBF709FE01463B
:1045B000B0FBF5F06FF01802504301EB800006EB02
:1045C0000010B0FBF5F000F0F002B1FBF5F002EBEB
:1045D0000012B1FBF5F06FF01803584301EB8000B7
:1045E00006EB0010B0FBF5F000F00F00D1E7000083
:1045F000001401400010014090F83910212901D029
:10460000022070478168B1F5805F016A0BD04A1CB7
:104610000262026809785160C18C491E0904090CC4
:10462000C1840ED017E009880268C1F30801516007
:1046300001690029016A02D0491C0162ECE7891C6A
:10464000FBE70168CA6822F08002CA600068C1689E
:1046500041F04001C160002070472DE9F0419846CB
:1046600017460E460446069D1DE0681C1BD02DB162
:10467000FDF7DAF8A0EB0800A84214D92068C16859
:1046800021F4D071C1602068416921F001014161CC
:10469000202084F8390084F83A00002084F838009B
:1046A0000320BDE8F0812068006836EA000004D0ED
:1046B0000020B842D9D00020F3E70120F9E700003C
:1046C0000148FEF78BBD0000A40400202DE9F04155
:1046D000D0F89832D0F89022DAB101EB810400EBE7
:1046E00084040025E6694EB1C1EBC10703EB8703E3
:1046F0005B6CB6FBF3F703FB176323B1C2F81452EC
:104700000020BDE8F08100231A46E56100F07DFC41
:10471000F6E70220F5E770B50546D0F8904200F0C4
:1047200089FBC4F80C02D5F8900248B1D5F8941270
:10473000D4F80402CA6804F503719047002070BDE4
:10474000022070BD70B504460026812100F0B8FA41
:10475000002501212046E56200F0B2FA82212046C0
:10476000C4F8585100F0ACFA2564D4F8900248B16E
:10477000D4F8940204F5247440688047206801F05E
:104780007BFE2560304670BD10B5D0E9A44159B11B
:1047900094F80002FF2807D08B6894F80122214684
:1047A0009847FF2084F80002002010BD0A210180F4
:1047B00000487047EC010020432101800048704709
:1047C0003C0200204321018000487047F80100208E
:1047D0004321018000487047800200202DE9F0410C
:1047E00004460026007C4FF40077012590B3402357
:1047F00002228121204600F065FB4023E56202226F
:104800000121204600F05EFB08230322822120467E
:10481000C4F8585100F056FB4FF40770256402F0BD
:10482000A1F9C4F89002F8B10546D4F894020068E2
:1048300080470020C5F81402C5F81802207CD5F87E
:10484000042298B140230121204600F047FB304666
:10485000BDE8F081FFE73B4602228121204600F0BF
:1048600031FB3B46E562CAE70126F0E73B46EAE753
:1048700010B5D0F8901269B1027C002AD1F8042258
:1048800005D04023012100F029FB002010BD4FF48A
:104890000073F7E7022010BD02460220002902D073
:1048A0000020C2F894127047D0F89002C0F80412A9
:1048B00000207047D0F89002C0F81022C0F808120B
:1048C000002070472DE9FC410546D0F89072002089
:1048D0008DF80000ADF80400064608780C4610F08C
:1048E000600121D020293BD1E288AAB1000660787E
:1048F00007D5D5F894128B6839469847E28839462F
:1049000026E087F80002A07987F80102E28839469C
:10491000284600F06AF828E0D5F894126078002262
:104920008B682146984720E0607820B10A2809D09A
:104930000B2815D110E095F87402032810D102223B
:1049400001A905E095F87402032809D101226946FE
:10495000284600F064F808E095F87402032804D0B3
:104960002146284600F036F802263046BDE8FC8194
:1049700010B5D0F89012A1B1D1F814220AB10120DB
:1049800010BD0122C1F81422D1F810220263B1F83F
:10499000102293B2D1F80822812100F036FB0020CA
:1049A00010BD022010BD10B5D0F88C22526890477F
:1049B000002010BD134610B50A46002100F08EFA03
:1049C000002010BD134610B50A46002100F01DFB63
:1049D000002010BD10B50446802100F0FBFA2046EF
:1049E000BDE81040002100F0F5BA10B50323C0F86F
:1049F0004821C0F86C32C0F84C2113460A46002109
:104A000000F06CFA002010BD10B505210023C0F89D
:104A10006C121A46194600F061FA002010BD10B55C
:104A20000223C261C0F86C32026213460A460021BA
:104A300000F0EBFA002010BD10B504210023C0F8EF
:104A40006C121A46194600F0E0FA002010BD000072
:104A500010B50A46024903A000F0E4F8004810BD72
:104A60008007002043444320436F6E666967757278
:104A7000650000001220088000487047980100205F
:104A800010B50A46024903A000F0CCF8004810BD5A
:104A90008007002043444320496E74657266616359
:104AA0006500000004200880004870479401002041
:104AB00010B50A46024903A000F0B4F8004810BD42
:104AC0008007002053544D6963726F656C65637491
:104AD000726F6E696373000010B50A46024903A045
:104AE00000F0A0F8004810BD8007002053544D335B
:104AF00032205669727475616C20436F6D506F720D
:104B00007400000010B51A2008800A480168001DD2
:104B10000468001D0068081809D008220649FEF73D
:104B200003FF0549042210312046FEF7FDFE02482E
:104B3000801E10BD107AFF1FAE010020F8B504469C
:104B400048880D46010A08294BD2DFE801F04A04E3
:104B500009174A4A4048D4F88812207C0A6832E093
:104B6000207C02260028D4F88C0205D0C16A684651
:104B700088470146467041E0816AF8E7C0B20628DE
:104B80002FD2DFE800F003080D12171CD4F88812AA
:104B9000207C4A6817E0D4F88812207C8A6812E0EA
:104BA000D4F88812207CCA680DE0D4F88812207CE2
:104BB0000A6908E0D4F88812207C4A6903E0D4F836
:104BC0008812207C8A6969469047014616E0207C5D
:104BD00038B9D4F88C02416B68468847F5E7207CE9
:104BE00020B129462046FFF7F5FEF8BDD4F88C0227
:104BF000016B68468847014607204870BDF80000F1
:104C000048B1EA8852B1824200D90246ADF800208C
:104C10002046FFF704FFE8880028E6D12046FFF78A
:104C20000BFFF8BD70B5002300281ED004460025F8
:104C300002E06D1CEDB2641C2678002EF9D102242E
:104C400004EB450414801278CA545B1C0322CA5436
:104C500000245B1C06E0CA545B1CDAB28C54521C64
:104C6000D3B2401C0278002AF5D170BD01004FF08C
:104C7000000004D0012901D0022901D00220704790
:104C80000120704710B580B1D0F88C3213B10023E9
:104C9000C0F88C3209B1C0F88812012180F8741272
:104CA000027000F0CBF8002010BD022010BD10B53E
:104CB000D0F89802FDF73EF9BDE81040FFF7D6BFE7
:104CC00010B5D0F89802FDF70FF9BDE81040FFF7D6
:104CD000CDBF2DE9F0411746044651B1D4F88C02FE
:104CE00042691AB194F87402032851D00220BDE839
:104CF000F081D4F86C32002504F11400022B03D0AB
:104D0000042B3AD0C3B33CE0D0E903639E4207D9F9
:104D1000F11AC1608AB239462046FFF753FE12E00D
:104D20008068B0FBF3F103FB110199B9984211D3EC
:104D3000D4F8701288420DD2002211462046FFF7A7
:104D400041FEC4F8705200231A461946204600F06E
:104D5000C5F816E0D4F88C02C16829B194F8740241
:104D6000032801D1204688478021204600F032F9EF
:104D70002046FFF749FE04E0FFE78021204600F0CF
:104D800029F994F87802012804D184F8785201E0D6
:104D9000204690470020AAE770B51546044649B161
:104DA000D4F88C0282691AB194F87402032830D0C6
:104DB000022070BDD4F86C1204F5A070032902D053
:104DC00005291ED027E0D0E903218A420BD9531AC6
:104DD000C3600846834200D303469AB22946204660
:104DE000FFF7E8FD17E0D4F88C02016929B194F8C7
:104DF0007402032801D1204688472046FFF71CFE95
:104E000009E000200146C4F86C02204600F0E2F8F8
:104E100001E020469047002070BD0020704710B58B
:104E2000012180F87412D0F88C22017952689047E1
:104E3000002010BDD0F89802FDF7AAB810B501788F
:104E400039BB15490222C1F80404C0F898124FF08A
:104E5000A0400860042048600020C1E90320C1E9A7
:104E6000062008624862C86208630846FDF782FBB4
:104E700008B1FBF7AFFF80210748FCF7F4FF4022A1
:104E800000210548FCF7F3FF802201210248FCF7CE
:104E9000EEFF002010BD0000401800200A0601F0BF
:104EA0007F01D0F89802C1EBC10100EB810002D56F
:104EB00090F83E00704790F8FE0170470020704760
:104EC0000020704710B51C461346D0F898022246C1
:104ED000FDF767F8BDE81040FFF7C8BE10B5D0F881
:104EE0009802FDF78EF8BDE81040FFF7BFBE70B521
:104EF0000022044640231146FFF7E4FF4026012527
:104F0000C4F850613346002280212046C4F8445141
:104F1000FFF7D8FF6662A56184F874520020C4F8D8
:104F20006C026060C4F87C02D4F8900228B1D4F816
:104F30008C020021426820469047002070BD90F806
:104F4000751280F874120020704710B590F8741232
:104F5000032904D1D0F88C12C96901B18847002017
:104F600010BD01740020704710B5D0F89802FDF70D
:104F7000D3FBBDE81040FFF779BE70B5044600F5DD
:104F80002070054600F04AF80120C4F86C02B4F81D
:104F90008602C4F8700294F8800210F01F010AD053
:104FA00001290DD0022910D000F08001204600F028
:104FB00011F8002070BD2946204600F09EF8F8E761
:104FC0002946204600F0CAF9F3E72946204600F0BA
:104FD0001DF9EEE710B5D0F89802FDF736F8BDE8F8
:104FE0001040FFF743BE10B5D0F89802FDF7AFFBB5
:104FF000BDE81040FFF73ABE90F8741280F87512C1
:10500000042180F874120020704710B5D0F898027F
:10501000FDF755F8BDE81040FFF728BE0A7802708A
:105020004A7842708A78CB7802EB032242800A7970
:105030004B7902EB032282808A79C97902EB012144
:10504000C18070470246002011B1C2F88C1270472F
:105050000220704710B5D0F88C2202241AB11268D1
:10506000904700B90024204610BD000070B50E46E0
:105070001E4D897804462970012931D894F87402AC
:1050800002280BD003280FD031462046FFF7A2FCA0
:1050900029782046BDE87040FFF785BCD9B10320D0
:1050A000616084F8740209E071B16068884212D0CE
:1050B000C1B22046FFF777FC297861602046FFF7F0
:1050C000C9FF02280CD006E0022084F874022046B2
:1050D0006160FFF768FC2046BDE87040FFF7ACBC9C
:1050E00031462046BDE87040FFF774BCE80100205F
:1050F00010B5FFF778FF002010BD2DE9F0410A78C8
:10510000002612F0600208D0202A01D0402A70D177
:10511000D0F88C22926890476DE04B7800220125F0
:105120000A2B66D2DFE803F0405D65576508056528
:105130002C29FFF703FD5EE004468888D8B9C888AB
:10514000C8B94888802816D200F07F0794F8740206
:10515000032810D084F8767239462046FFF704FF02
:105160002046FFF769FC1FB1022084F8740242E078
:1051700084F874523FE020463BE0FFF777FF3AE0C7
:10518000CB88012B35D190F87432012B04D0022B3F
:1051900002D0032B2DD104E08260012200F108012E
:1051A00016E00122011D13E090F87422012A03D0B9
:1051B000022A01D0032A1CD1CA88022A19D1C5604B
:1051C000D0F87C1209B10321C160022200F10C0168
:1051D000FFF725FC0FE0498801290CD1C0F87C526B
:1051E00011E090F87432012B08D0022B06D0032B6B
:1051F00004D0FFF7EFFB3046BDE8F0814988012974
:10520000F9D1C0F87C22FFF717FCF4E72DE9F04153
:105210000A46044610780027097910F060030AD086
:10522000202B01D0402B50D1D4F88C02114683683A
:10523000204698478FE0C0F34110012806D05078EF
:10524000D0B301282AD003283FD107E0D4F88C023C
:10525000114683682046BDE8F041184794F874026F
:10526000022802D0032872D10AE071B380296ED0DF
:105270002046FFF7AFFE80212046FFF7ABFE6AE035
:10528000508838B931B1802904D0D08810B920466F
:10529000FFF7A0FE2046FFF7CFFB5CE094F8740216
:1052A0000228E2D0032852D1508898BB4806F1D09A
:1052B0002046FFF7FCFCEDE7FFE794F874020026B8
:1052C000022803D0032842D112E040E009B180292E
:1052D0003DD1080601F07F0000EB800004EB800167
:1052E00001D5143101E001F5A07102220E602AE01F
:1052F000080601F00F0000EB800004EB80000AD5E7
:10530000806920B301F07F0000EB800004EB800592
:1053100014350BE01FE0D0F84401C0B101F07F006C
:1053200000EB800004EB800505F5A07541B18029F4
:1053300006D02046FFF7B2FD10B10120286000E042
:105340002E60022229462046FFF769FB03E0114642
:105350002046FFF73FFB3846BDE8F08170B50546B3
:1053600008780C4610F0600003D0202801D04028B7
:1053700016D195F87402012803D0022801D0032821
:105380000ED1207901280BD8D5F88C0282682846E6
:105390009047E188014306D12846FFF74DFB02E024
:1053A0002846FFF717FB002070BD000070B50A7893
:1053B000012302F00F054E78AB401B4CD0F81C586F
:1053C000012E17D045EA0343C0F81C3800EB421009
:1053D000D0F8002B12040BD4D0F8002B0B89C9781D
:1053E000C3F30A031A4344EA81410A43C0F8002B7D
:1053F000002070BD9BB21D43C0F81C5800EB42104A
:10540000D0F800391B04F3D4D0F800390D89C978DD
:10541000C5F30A0589042B4341EA82510B43234318
:10542000C0F80039E4E7000000800010D0F800194F
:105430006FF30A01C0F80019D0F80818C1F3410150
:10544000022905D1D0F8001941F00301C0F8001974
:10545000D0F8041841F48071C0F804180020704797
:1054600070B5044606990A9E049D0D98012916D030
:10547000E06840F04000E060204600F02BF8A16BAF
:105480001EB321F48031A163012D07D1A16841F041
:105490000601A160A16841F02001A16070BDA16B6F
:1054A00021F48031A163E168094A1140E160E168BB
:1054B00021F44011E160012803D1E06840F480103C
:1054C000E060204600F006F8DEE741F48031DAE7DC
:1054D000BFFFBDFF01220C4902E0521C8A420BD8DB
:1054E0000369002BF9DA026942F00102026101222C
:1054F00004E0521C8A4201D9032070470369DB078C
:10550000F7D1002070470000400D030030B50B7844
:105510004D78012203F00F0402FA04F4012DD0F8B3
:105520003C5817D025EA0444C0F83C48D0F81C4841
:10553000097801F00F018A4024EA0241C0F81C18E2
:1055400000EB4310D0F8001B0E4A1140C0F8001BBE
:10555000002030BDA4B2A543C0F83C58D0F81C4888
:10556000097801F00F018A4091B28C43C0F81C48C1
:1055700000EB4310D0F80019034A1140C0F800199D
:10558000E6E700000078F3EF007833EC10B5D0F8D0
:10559000041821F00201C0F804180320FCF750F8A9
:1055A000002010BD10B5D0F8041841F00201C0F879
:1055B00004180320FCF744F8002010BD2DE9F04F3B
:1055C0000025DDE90BCB0E460446DDF84090099F2F
:1055D0002846294604EB8002C2F80411401C0F281B
:1055E000F8D3B9F1000F204618D0006820F400125B
:1055F0002260A06B40F40022A26308468846C4F8EB
:10560000000ED4F800182046C4F80018BCF1010FB1
:1056100010D0D0F8001841F0030110E0806B40F486
:105620000012A263A06B20F40022A263A06B20F4FE
:105630008022E1E7D0F800180BB141F00101C0F879
:105640000018102100F0A0FA00B10125204600F05A
:105650008BFA00B101254046C4F81088C4F81488BC
:10566000C4F81C8800214FF000634FF090484FF6BB
:105670007F3A14E004EB4112D2F800C9BCF1000FEC
:1056800006DA11B1C2F8008904E0C4F8003901E07B
:10569000C2F80009C2F81009C2F808A9491C8E42D4
:1056A000E8D8002115E000BF04EB4112D2F800CB8E
:1056B000BCF1000F06DA11B1C2F8008B04E0C4F8A7
:1056C000003B01E0C2F8000BC2F8100BC2F808ABB7
:1056D000491C8E42E8D8D4F8101821F48072214673
:1056E000C4F81028012F08D1134AC1F83028D1F886
:1056F0003018124A1143C4F83018A0616FF080408E
:1057000060611FB9A06940F01000A061A0690C4958
:105710000843A061BBF1000F03D0A06940F008006E
:10572000A061B9F1010F03D1A06906490843A06146
:105730002846BDE8F08F0000000180000300010052
:1057400000383C8004000040816821F00101816044
:105750000020704770B50D784E78434CEBB200EBEB
:105760004313012E1FD0D3F8100B6FF31200C3F8B0
:10577000100BD3F8100B2040C3F8100B486908B188
:1057800088684861D3F8100B40F40020C3F8100B70
:10579000D3F8100B8C68C4F312042043C3F8100B29
:1057A000012A55D058E04E69002ED3F8106932D046
:1057B0006FF31206C3F81069D3F810692640C3F8D6
:1057C00010694E698C68A64200D94C61D3F8104923
:1057D00044F40024C3F81049D3F810494E69C6F3C5
:1057E00012063443C3F81049012A22D000EB4512B7
:1057F000D2F8003943F00443C2F800394A6932B3A1
:10580000D0F83428097801F00F03012199400A43A8
:10581000C0F8342826E02640C3F81069D3F81049B0
:1058200044F40024C3F81049D3F810496FF312046C
:10583000D8E7096919B100EB4512C2F8141900EB59
:105840004510D0F8001941F00441C0F8001909E0F2
:10585000C86808B1C3F8140BD3F8000B40F004403B
:10586000C3F8000B002070BDFFFF07E010B5036C0C
:10587000134CA34203D9D0F8003B002B1EDB0023BE
:10588000C0F8103BD0F8103B43F40023C0F8103BA5
:10589000D0F8103B43F01803C0F8103BD0F8103B91
:1058A00043F0C043C0F8103B012907D1C0F8142BC6
:1058B000D0F8001B41F08021C0F8001B002010BD73
:1058C0000A30544F4A780B78012A00EB43100BD072
:1058D000D0F8002B22F40012C0F8002BC97803295D
:1058E00014D0022912D017E0D0F8002922F40012B7
:1058F000C0F80029C978032901D002290CD1D0F8B9
:10590000001941F08051C0F8001905E0D0F8001BE3
:1059100041F08051C0F8001B002070470A784B7896
:10592000D1B200EB4110012B12D0D0F8001B00299E
:1059300006DB2AB1D0F8001B21F08041C0F8001B23
:10594000D0F8001B41F40011C0F8001B0020704784
:10595000D0F80019002906DB2AB1D0F8001921F08F
:105960008041C0F80019D0F8001941F40011C0F8C6
:105970000019EBE7F8B50C784F78774DE3B26FF08C
:10598000604600EB4313012F26D0D3F8104B6FF382
:105990001204C3F8104BD3F8104B2C40C3F8104B33
:1059A0004C69002C74D08D682C44641EB4FBF5F453
:1059B000D3F8105BA4B206EAC4463543C3F8105BC3
:1059C000D3F8105B8E686643C6F312042543C3F810
:1059D000105B012A71D0A6E04F691FB3D3F810798C
:1059E0006FF31207C3F81079D3F810792F40C3F87A
:1059F00010794F698D682F447F1EB7FBF5F506EAD5
:105A0000C545D3F810693543C3F81059D3F8105978
:105A10004E69C6F312063543C3F81059CD78012DEF
:105A200010D01BE0D3F810692E40C3F81069D3F8EA
:105A3000105945F40025C3F81059D3F810596FF3E5
:105A4000120509E0D3F8105925F0C045C3F81059E4
:105A5000D3F8105945F00055C3F81059012A18D051
:105A600000EB4413D3F8004944F00444C3F8004960
:105A7000CC78012C2FD04A6962B3D0F83428097849
:105A800001F00F03012199400A43C0F8342860E077
:105A900036E00A691AB100EB4413C3F81429C97837
:105AA00001290FD1D0F80818C90500EB4411D1F82D
:105AB000002903D442F0005202E030E042F080526C
:105AC000C1F8002900EB4410D0F8001941F004415E
:105AD000C0F800193DE0D0F80848E405D3F80049C3
